{
  "contractName": "MoveCrowd",
  "abi": [
    {
      "constant": true,
      "inputs": [],
      "name": "name",
      "outputs": [
        {
          "name": "",
          "type": "string"
        }
      ],
      "payable": false,
      "stateMutability": "view",
      "type": "function"
    },
    {
      "constant": true,
      "inputs": [],
      "name": "totalSupply",
      "outputs": [
        {
          "name": "",
          "type": "uint256"
        }
      ],
      "payable": false,
      "stateMutability": "view",
      "type": "function"
    },
    {
      "constant": true,
      "inputs": [],
      "name": "desc",
      "outputs": [
        {
          "name": "",
          "type": "string"
        }
      ],
      "payable": false,
      "stateMutability": "view",
      "type": "function"
    },
    {
      "constant": true,
      "inputs": [],
      "name": "isFinished",
      "outputs": [
        {
          "name": "",
          "type": "bool"
        }
      ],
      "payable": false,
      "stateMutability": "view",
      "type": "function"
    },
    {
      "constant": true,
      "inputs": [],
      "name": "owner",
      "outputs": [
        {
          "name": "",
          "type": "address"
        }
      ],
      "payable": false,
      "stateMutability": "view",
      "type": "function"
    },
    {
      "constant": true,
      "inputs": [],
      "name": "totalCrowd",
      "outputs": [
        {
          "name": "",
          "type": "uint256"
        }
      ],
      "payable": false,
      "stateMutability": "view",
      "type": "function"
    },
    {
      "inputs": [
        {
          "name": "_totalSupply",
          "type": "uint256"
        },
        {
          "name": "_desc",
          "type": "string"
        },
        {
          "name": "_owner",
          "type": "address"
        },
        {
          "name": "_token",
          "type": "address"
        }
      ],
      "payable": false,
      "stateMutability": "nonpayable",
      "type": "constructor"
    },
    {
      "anonymous": false,
      "inputs": [
        {
          "indexed": false,
          "name": "to",
          "type": "address"
        },
        {
          "indexed": false,
          "name": "value",
          "type": "uint256"
        },
        {
          "indexed": false,
          "name": "id",
          "type": "uint256"
        }
      ],
      "name": "AirDrop",
      "type": "event"
    },
    {
      "constant": false,
      "inputs": [
        {
          "name": "to",
          "type": "address"
        },
        {
          "name": "value",
          "type": "uint256"
        }
      ],
      "name": "airDrop",
      "outputs": [
        {
          "name": "",
          "type": "bool"
        }
      ],
      "payable": false,
      "stateMutability": "nonpayable",
      "type": "function"
    },
    {
      "constant": false,
      "inputs": [
        {
          "name": "value",
          "type": "uint256"
        }
      ],
      "name": "buyMvc",
      "outputs": [
        {
          "name": "",
          "type": "bool"
        }
      ],
      "payable": false,
      "stateMutability": "nonpayable",
      "type": "function"
    },
    {
      "constant": true,
      "inputs": [
        {
          "name": "who",
          "type": "address"
        }
      ],
      "name": "crowdInfo",
      "outputs": [
        {
          "name": "amount",
          "type": "uint256"
        },
        {
          "name": "crowdTime",
          "type": "uint256"
        }
      ],
      "payable": false,
      "stateMutability": "view",
      "type": "function"
    },
    {
      "constant": false,
      "inputs": [],
      "name": "ticketBooking",
      "outputs": [],
      "payable": true,
      "stateMutability": "payable",
      "type": "function"
    },
    {
      "constant": true,
      "inputs": [],
      "name": "getBalance",
      "outputs": [
        {
          "name": "",
          "type": "uint256"
        }
      ],
      "payable": false,
      "stateMutability": "view",
      "type": "function"
    },
    {
      "constant": true,
      "inputs": [],
      "name": "getAddr",
      "outputs": [
        {
          "name": "",
          "type": "address"
        }
      ],
      "payable": false,
      "stateMutability": "view",
      "type": "function"
    }
  ],
  "bytecode": "0x60806040526040805190810160405280600381526020017f6d766300000000000000000000000000000000000000000000000000000000008152506000908051906020019062000051929190620002da565b506000600260146101000a81548160ff0219169083151502179055506000600455600060055560006006553480156200008957600080fd5b506040516200123b3803806200123b833981018060405281019080805190602001909291908051820192919060200180519060200190929190805190602001909291905050508360058190555081600360006101000a81548173ffffffffffffffffffffffffffffffffffffffff021916908373ffffffffffffffffffffffffffffffffffffffff16021790555082600190805190602001906200012f929190620002da565b5080600260006101000a81548173ffffffffffffffffffffffffffffffffffffffff021916908373ffffffffffffffffffffffffffffffffffffffff1602179055506006600081548092919060010191905055610bbf6000600360009054906101000a900473ffffffffffffffffffffffffffffffffffffffff1673ffffffffffffffffffffffffffffffffffffffff1673ffffffffffffffffffffffffffffffffffffffff16815260200190815260200160002081905550600360009054906101000a900473ffffffffffffffffffffffffffffffffffffffff16600760006103e8811015156200021d57fe5b6003020160000160006101000a81548173ffffffffffffffffffffffffffffffffffffffff021916908373ffffffffffffffffffffffffffffffffffffffff1602179055506064600a600554028115156200027457fe5b04600760006103e8811015156200028757fe5b600302016001018190555042600760006103e881101515620002a557fe5b6003020160020181905550600760006103e881101515620002c257fe5b60030201600101546004819055505050505062000389565b828054600181600116156101000203166002900490600052602060002090601f016020900481019282601f106200031d57805160ff19168380011785556200034e565b828001600101855582156200034e579182015b828111156200034d57825182559160200191906001019062000330565b5b5090506200035d919062000361565b5090565b6200038691905b808211156200038257600081600090555060010162000368565b5090565b90565b610ea280620003996000396000f3006080604052600436106100ba576000357c0100000000000000000000000000000000000000000000000000000000900463ffffffff168063045f7850146100bf57806306fdde031461012457806312065fe0146101b457806318160ddd146101df57806355f150f11461020a5780635aac70fa1461029a578063634435f3146102f85780637b3529621461033d5780638da5cb5b1461036c578063a74c2bb6146103c3578063c6acd4bd1461041a578063f825e3a514610424575b600080fd5b3480156100cb57600080fd5b5061010a600480360381019080803573ffffffffffffffffffffffffffffffffffffffff1690602001909291908035906020019092919050505061044f565b604051808215151515815260200191505060405180910390f35b34801561013057600080fd5b50610139610528565b6040518080602001828103825283818151815260200191508051906020019080838360005b8381101561017957808201518184015260208101905061015e565b50505050905090810190601f1680156101a65780820380516001836020036101000a031916815260200191505b509250505060405180910390f35b3480156101c057600080fd5b506101c96105c6565b6040518082815260200191505060405180910390f35b3480156101eb57600080fd5b506101f46105e5565b6040518082815260200191505060405180910390f35b34801561021657600080fd5b5061021f6105eb565b6040518080602001828103825283818151815260200191508051906020019080838360005b8381101561025f578082015181840152602081019050610244565b50505050905090810190601f16801561028c5780820380516001836020036101000a031916815260200191505b509250505060405180910390f35b3480156102a657600080fd5b506102db600480360381019080803573ffffffffffffffffffffffffffffffffffffffff169060200190929190505050610689565b604051808381526020018281526020019250505060405180910390f35b34801561030457600080fd5b5061032360048036038101908080359060200190929190505050610787565b604051808215151515815260200191505060405180910390f35b34801561034957600080fd5b506103526108c5565b604051808215151515815260200191505060405180910390f35b34801561037857600080fd5b506103816108d8565b604051808273ffffffffffffffffffffffffffffffffffffffff1673ffffffffffffffffffffffffffffffffffffffff16815260200191505060405180910390f35b3480156103cf57600080fd5b506103d86108fe565b604051808273ffffffffffffffffffffffffffffffffffffffff1673ffffffffffffffffffffffffffffffffffffffff16815260200191505060405180910390f35b610422610906565b005b34801561043057600080fd5b506104396109f0565b6040518082815260200191505060405180910390f35b6000600360009054906101000a900473ffffffffffffffffffffffffffffffffffffffff1673ffffffffffffffffffffffffffffffffffffffff163373ffffffffffffffffffffffffffffffffffffffff16141515610516576040517f08c379a00000000000000000000000000000000000000000000000000000000081526004018080602001828103825260198152602001807f4f6e6c79206f776e65722063616e206265206f707261746f720000000000000081525060200191505060405180910390fd5b61052083836109f6565b905092915050565b60008054600181600116156101000203166002900480601f0160208091040260200160405190810160405280929190818152602001828054600181600116156101000203166002900480156105be5780601f10610593576101008083540402835291602001916105be565b820191906000526020600020905b8154815290600101906020018083116105a157829003601f168201915b505050505081565b60003073ffffffffffffffffffffffffffffffffffffffff1631905090565b60055481565b60018054600181600116156101000203166002900480601f0160208091040260200160405190810160405280929190818152602001828054600181600116156101000203166002900480156106815780601f1061065657610100808354040283529160200191610681565b820191906000526020600020905b81548152906001019060200180831161066457829003601f168201915b505050505081565b6000806000610bbf60008573ffffffffffffffffffffffffffffffffffffffff1673ffffffffffffffffffffffffffffffffffffffff16815260200190815260200160002054905060008114801561072f5750600360009054906101000a900473ffffffffffffffffffffffffffffffffffffffff1673ffffffffffffffffffffffffffffffffffffffff168473ffffffffffffffffffffffffffffffffffffffff1614155b156107465760008081915080905092509250610781565b6007816103e88110151561075657fe5b600302016001015492506007816103e88110151561077057fe5b600302016002015491508282925092505b50915091565b60008060648381151561079657fe5b0490506000811115156107a857600080fd5b600260009054906101000a900473ffffffffffffffffffffffffffffffffffffffff1673ffffffffffffffffffffffffffffffffffffffff16638568523a33856040518363ffffffff167c0100000000000000000000000000000000000000000000000000000000028152600401808373ffffffffffffffffffffffffffffffffffffffff1673ffffffffffffffffffffffffffffffffffffffff16815260200182815260200192505050602060405180830381600087803b15801561086d57600080fd5b505af1158015610881573d6000803e3d6000fd5b505050506040513d602081101561089757600080fd5b810190808051906020019092919050505015156108b357600080fd5b6108bd33826109f6565b915050919050565b600260149054906101000a900460ff1681565b600360009054906101000a900473ffffffffffffffffffffffffffffffffffffffff1681565b600030905090565b6000803411151561091657600080fd5b600090505b6103e88110156109ed576007816103e88110151561093557fe5b6003020160000160009054906101000a900473ffffffffffffffffffffffffffffffffffffffff1673ffffffffffffffffffffffffffffffffffffffff166108fc6109b46005546109a66007866103e88110151561098f57fe5b600302016001015434610ded90919063ffffffff16565b610e2b90919063ffffffff16565b9081150290604051600060405180830381858888f193505050501580156109df573d6000803e3d6000fd5b50808060010191505061091b565b50565b60045481565b600080600260149054906101000a900460ff16151515610a7e576040517f08c379a00000000000000000000000000000000000000000000000000000000081526004018080602001828103825260128152602001807f7468652063726f776420697320656e646564000000000000000000000000000081525060200191505060405180910390fd5b600073ffffffffffffffffffffffffffffffffffffffff168473ffffffffffffffffffffffffffffffffffffffff1614151515610aba57600080fd5b600554836004540111151515610acf57600080fd5b6000610bbf60008673ffffffffffffffffffffffffffffffffffffffff1673ffffffffffffffffffffffffffffffffffffffff16815260200190815260200160002054118015610b605750600654610bbf60008673ffffffffffffffffffffffffffffffffffffffff1673ffffffffffffffffffffffffffffffffffffffff16815260200190815260200160002054105b15610c0e57610bbf60008573ffffffffffffffffffffffffffffffffffffffff1673ffffffffffffffffffffffffffffffffffffffff168152602001908152602001600020549050610bd2836007836103e881101515610bbc57fe5b6003020160010154610e5590919063ffffffff16565b6007826103e881101515610be257fe5b6003020160010181905550426007826103e881101515610bfe57fe5b6003020160020181905550610d1e565b6006600081548092919060010191905055905080610bbf60008673ffffffffffffffffffffffffffffffffffffffff1673ffffffffffffffffffffffffffffffffffffffff16815260200190815260200160002081905550610c90836007836103e881101515610c7a57fe5b6003020160010154610e5590919063ffffffff16565b6007826103e881101515610ca057fe5b6003020160010181905550836007826103e881101515610cbc57fe5b6003020160000160006101000a81548173ffffffffffffffffffffffffffffffffffffffff021916908373ffffffffffffffffffffffffffffffffffffffff160217905550426007826103e881101515610d1257fe5b60030201600201819055505b610d3383600454610e5590919063ffffffff16565b506005546004541415610d5c576001600260146101000a81548160ff0219169083151502179055505b6103e860065411151515610d6f57600080fd5b7fc804beabd6deef69632486188d3b1a0fc6837d20bf348393884d368fa5bf10cd848483604051808473ffffffffffffffffffffffffffffffffffffffff1673ffffffffffffffffffffffffffffffffffffffff168152602001838152602001828152602001935050505060405180910390a1600191505092915050565b6000806000841415610e025760009150610e24565b8284029050828482811515610e1357fe5b04141515610e2057600080fd5b8091505b5092915050565b600080600083111515610e3d57600080fd5b8284811515610e4857fe5b0490508091505092915050565b6000808284019050838110151515610e6c57600080fd5b80915050929150505600a165627a7a72305820a86a0dcba814622997138da5eec35817ba1eed6b2a1715d1fdffe765be98f12a0029",
  "source": "pragma solidity ^0.4.24;\n\nimport \"./math/SafeMath.sol\";\nimport \"./kccToken.sol\";\n\ncontract MoveCrowd {\n    using SafeMath for uint256;\n\n    string public name = \"mvc\";\n    string public desc;\n\n    KccToken token;\n\n    bool public isFinished = false;//\n\n    address public owner;\n\n    uint public totalCrowd = 0;\n    uint public totalSupply = 0;\n\n    struct CrowdFundingInfo {\n        address addr;\n        uint amount;\n        uint crowdTime;\n    }\n\n    uint userCount = 0;\n    CrowdFundingInfo[1000] info;\n\n    mapping(address => uint) userId;\n\n    event AirDrop(address to, uint value, uint id);\n\n    constructor(uint _totalSupply, string _desc, address _owner, KccToken _token) public {\n        totalSupply = _totalSupply;\n        owner = _owner;\n        desc = _desc;\n\n        token = _token;\n\n        userId[owner] = userCount++;\n        info[0].addr = owner;\n        info[0].amount = totalSupply * 10 / 100;\n        info[0].crowdTime = now;\n        totalCrowd = info[0].amount;\n    }\n    \n    function airDrop(address to, uint value) external returns (bool) {\n        require(msg.sender == owner, \"Only owner can be oprator\");\n        return _drop(to, value);\n    }\n\n    function buyMvc(uint value) external returns (bool) {\n        uint number = value / 100;\n        require(number > 0);\n        require(token.transferToOwner(msg.sender, value));\n\n        return _drop(msg.sender, number);\n    }    \n\n    function _drop(address to, uint value) private returns (bool) {\n        require(!isFinished, \"the crowd is ended\");\n        \n        require(to != address(0));\n        require(totalCrowd + value <= totalSupply);\n\n        uint id;\n        if(userId[to] > 0 && userId[to] < userCount) {\n            id = userId[to];\n            info[id].amount = info[id].amount.add(value);\n            info[id].crowdTime = now;\n        } else {\n            id = userCount++;\n            userId[to] = id;\n            info[id].amount = info[id].amount.add(value);\n            info[id].addr = to;\n            info[id].crowdTime = now;\n        }\n        totalCrowd.add(value);\n        if( totalCrowd == totalSupply) {\n            isFinished = true;\n        }\n        require( userCount <= 1000);\n        emit AirDrop(to, value, id);\n\n        return true;\n\n    }\n\n    function crowdInfo(address who) external view returns (uint amount, uint crowdTime) {\n        uint id = userId[who];\n        if(id == 0 && who != owner){\n            return (0,0);            \n\t}\n        amount = info[id].amount;\n        crowdTime = info[id].crowdTime;\n        return (amount, crowdTime);\n    }\n\n    function ticketBooking() payable public {\n        require( msg.value > 0);\n        \n        for(uint i = 0; i < info.length; i++) {\n            info[i].addr.transfer( msg.value.mul(info[i].amount).div(totalSupply));\n        }\n    }\n\n    function getBalance() public view returns (uint) {\n        return address(this).balance;\n    }\n\n    function getAddr() public view returns (address) {\n        return address(this);\n    } \n\n}\n",
  "sourcePath": "/home/lxd/WebstormProjects/untitled/zc/contracts/MoveCrowd.sol",
  "compiler": {
    "name": "solc",
    "version": "0.4.24+commit.e67f0147.Emscripten.clang"
  },
  "schemaVersion": "2.0.1",
  "updatedAt": "2018-11-27T02:23:07.458Z"
}