{
  "contractName": "MoveCrowd",
  "abi": [
    {
      "constant": true,
      "inputs": [],
      "name": "name",
      "outputs": [
        {
          "name": "",
          "type": "string"
        }
      ],
      "payable": false,
      "stateMutability": "view",
      "type": "function"
    },
    {
      "constant": true,
      "inputs": [],
      "name": "totalSupply",
      "outputs": [
        {
          "name": "",
          "type": "uint256"
        }
      ],
      "payable": false,
      "stateMutability": "view",
      "type": "function"
    },
    {
      "constant": true,
      "inputs": [],
      "name": "endTime",
      "outputs": [
        {
          "name": "",
          "type": "uint256"
        }
      ],
      "payable": false,
      "stateMutability": "view",
      "type": "function"
    },
    {
      "constant": true,
      "inputs": [],
      "name": "desc",
      "outputs": [
        {
          "name": "",
          "type": "string"
        }
      ],
      "payable": false,
      "stateMutability": "view",
      "type": "function"
    },
    {
      "constant": true,
      "inputs": [],
      "name": "startTime",
      "outputs": [
        {
          "name": "",
          "type": "uint256"
        }
      ],
      "payable": false,
      "stateMutability": "view",
      "type": "function"
    },
    {
      "constant": true,
      "inputs": [],
      "name": "isFinished",
      "outputs": [
        {
          "name": "",
          "type": "bool"
        }
      ],
      "payable": false,
      "stateMutability": "view",
      "type": "function"
    },
    {
      "constant": true,
      "inputs": [],
      "name": "owner",
      "outputs": [
        {
          "name": "",
          "type": "address"
        }
      ],
      "payable": false,
      "stateMutability": "view",
      "type": "function"
    },
    {
      "constant": true,
      "inputs": [],
      "name": "mvcPrice",
      "outputs": [
        {
          "name": "",
          "type": "uint256"
        }
      ],
      "payable": false,
      "stateMutability": "view",
      "type": "function"
    },
    {
      "constant": true,
      "inputs": [],
      "name": "totalCrowd",
      "outputs": [
        {
          "name": "",
          "type": "uint256"
        }
      ],
      "payable": false,
      "stateMutability": "view",
      "type": "function"
    },
    {
      "inputs": [
        {
          "name": "_totalSupply",
          "type": "uint256"
        },
        {
          "name": "_desc",
          "type": "string"
        },
        {
          "name": "_owner",
          "type": "address"
        },
        {
          "name": "_token",
          "type": "address"
        },
        {
          "name": "_endTime",
          "type": "uint256"
        }
      ],
      "payable": false,
      "stateMutability": "nonpayable",
      "type": "constructor"
    },
    {
      "anonymous": false,
      "inputs": [
        {
          "indexed": false,
          "name": "to",
          "type": "address"
        },
        {
          "indexed": false,
          "name": "value",
          "type": "uint256"
        },
        {
          "indexed": false,
          "name": "id",
          "type": "uint256"
        }
      ],
      "name": "AirDrop",
      "type": "event"
    },
    {
      "constant": false,
      "inputs": [
        {
          "name": "to",
          "type": "address"
        },
        {
          "name": "value",
          "type": "uint256"
        }
      ],
      "name": "airDrop",
      "outputs": [
        {
          "name": "",
          "type": "bool"
        }
      ],
      "payable": false,
      "stateMutability": "nonpayable",
      "type": "function"
    },
    {
      "constant": false,
      "inputs": [
        {
          "name": "value",
          "type": "uint256"
        }
      ],
      "name": "buyMvc",
      "outputs": [
        {
          "name": "",
          "type": "bool"
        }
      ],
      "payable": false,
      "stateMutability": "nonpayable",
      "type": "function"
    },
    {
      "constant": true,
      "inputs": [
        {
          "name": "who",
          "type": "address"
        }
      ],
      "name": "crowdInfo",
      "outputs": [
        {
          "name": "amount",
          "type": "uint256"
        },
        {
          "name": "crowdTime",
          "type": "uint256"
        }
      ],
      "payable": false,
      "stateMutability": "view",
      "type": "function"
    },
    {
      "constant": false,
      "inputs": [],
      "name": "ticketBooking",
      "outputs": [],
      "payable": true,
      "stateMutability": "payable",
      "type": "function"
    },
    {
      "constant": false,
      "inputs": [
        {
          "name": "value",
          "type": "uint256"
        }
      ],
      "name": "setMvcPrice",
      "outputs": [
        {
          "name": "",
          "type": "bool"
        }
      ],
      "payable": false,
      "stateMutability": "nonpayable",
      "type": "function"
    },
    {
      "constant": true,
      "inputs": [],
      "name": "getBalance",
      "outputs": [
        {
          "name": "",
          "type": "uint256"
        }
      ],
      "payable": false,
      "stateMutability": "view",
      "type": "function"
    }
  ],
  "bytecode": "0x60806040526040805190810160405280600381526020017f6d76630000000000000000000000000000000000000000000000000000000000815250600090805190602001906200005192919062000361565b506000600260146101000a81548160ff02191690831515021790555060646005556000600755600060085560006009553480156200008e57600080fd5b50604051620014663803806200146683398101806040528101908080519060200190929190805182019291906020018051906020019092919080519060200190929190805190602001909291905050508460088190555082600660006101000a81548173ffffffffffffffffffffffffffffffffffffffff021916908373ffffffffffffffffffffffffffffffffffffffff16021790555083600190805190602001906200013e92919062000361565b5081600260006101000a81548173ffffffffffffffffffffffffffffffffffffffff021916908373ffffffffffffffffffffffffffffffffffffffff16021790555042600381905550620001ad62015180826200031f6401000000000262000fbb179091906401000000009004565b42016004819055506009600081548092919060010191905055610bc26000600660009054906101000a900473ffffffffffffffffffffffffffffffffffffffff1673ffffffffffffffffffffffffffffffffffffffff1673ffffffffffffffffffffffffffffffffffffffff16815260200190815260200160002081905550600660009054906101000a900473ffffffffffffffffffffffffffffffffffffffff16600a60006103e8811015156200026157fe5b6003020160000160006101000a81548173ffffffffffffffffffffffffffffffffffffffff021916908373ffffffffffffffffffffffffffffffffffffffff1602179055506064600a60085402811515620002b857fe5b04600a60006103e881101515620002cb57fe5b600302016001018190555042600a60006103e881101515620002e957fe5b6003020160020181905550600a60006103e8811015156200030657fe5b6003020160010154600781905550505050505062000410565b60008060008414156200033657600091506200035a565b82840290508284828115156200034857fe5b041415156200035657600080fd5b8091505b5092915050565b828054600181600116156101000203166002900490600052602060002090601f016020900481019282601f10620003a457805160ff1916838001178555620003d5565b82800160010185558215620003d5579182015b82811115620003d4578251825591602001919060010190620003b7565b5b509050620003e49190620003e8565b5090565b6200040d91905b8082111562000409576000816000905550600101620003ef565b5090565b90565b61104680620004206000396000f3006080604052600436106100db576000357c0100000000000000000000000000000000000000000000000000000000900463ffffffff168063045f7850146100e057806306fdde031461014557806312065fe0146101d557806318160ddd146102005780633197cbb61461022b57806355f150f1146102565780635aac70fa146102e65780635ba268c014610344578063634435f31461038957806378e97925146103ce5780637b352962146103f95780638da5cb5b14610428578063c6acd4bd1461047f578063e51457e714610489578063f825e3a5146104b4575b600080fd5b3480156100ec57600080fd5b5061012b600480360381019080803573ffffffffffffffffffffffffffffffffffffffff169060200190929190803590602001909291905050506104df565b604051808215151515815260200191505060405180910390f35b34801561015157600080fd5b5061015a6105b8565b6040518080602001828103825283818151815260200191508051906020019080838360005b8381101561019a57808201518184015260208101905061017f565b50505050905090810190601f1680156101c75780820380516001836020036101000a031916815260200191505b509250505060405180910390f35b3480156101e157600080fd5b506101ea610656565b6040518082815260200191505060405180910390f35b34801561020c57600080fd5b50610215610675565b6040518082815260200191505060405180910390f35b34801561023757600080fd5b5061024061067b565b6040518082815260200191505060405180910390f35b34801561026257600080fd5b5061026b610681565b6040518080602001828103825283818151815260200191508051906020019080838360005b838110156102ab578082015181840152602081019050610290565b50505050905090810190601f1680156102d85780820380516001836020036101000a031916815260200191505b509250505060405180910390f35b3480156102f257600080fd5b50610327600480360381019080803573ffffffffffffffffffffffffffffffffffffffff16906020019092919050505061071f565b604051808381526020018281526020019250505060405180910390f35b34801561035057600080fd5b5061036f6004803603810190808035906020019092919050505061081d565b604051808215151515815260200191505060405180910390f35b34801561039557600080fd5b506103b46004803603810190808035906020019092919050505061088b565b604051808215151515815260200191505060405180910390f35b3480156103da57600080fd5b506103e3610aea565b6040518082815260200191505060405180910390f35b34801561040557600080fd5b5061040e610af0565b604051808215151515815260200191505060405180910390f35b34801561043457600080fd5b5061043d610b03565b604051808273ffffffffffffffffffffffffffffffffffffffff1673ffffffffffffffffffffffffffffffffffffffff16815260200191505060405180910390f35b610487610b29565b005b34801561049557600080fd5b5061049e610c13565b6040518082815260200191505060405180910390f35b3480156104c057600080fd5b506104c9610c19565b6040518082815260200191505060405180910390f35b6000600660009054906101000a900473ffffffffffffffffffffffffffffffffffffffff1673ffffffffffffffffffffffffffffffffffffffff163373ffffffffffffffffffffffffffffffffffffffff161415156105a6576040517f08c379a00000000000000000000000000000000000000000000000000000000081526004018080602001828103825260198152602001807f4f6e6c79206f776e65722063616e206265206f707261746f720000000000000081525060200191505060405180910390fd5b6105b08383610c1f565b905092915050565b60008054600181600116156101000203166002900480601f01602080910402602001604051908101604052809291908181526020018280546001816001161561010002031660029004801561064e5780601f106106235761010080835404028352916020019161064e565b820191906000526020600020905b81548152906001019060200180831161063157829003601f168201915b505050505081565b60003073ffffffffffffffffffffffffffffffffffffffff1631905090565b60085481565b60045481565b60018054600181600116156101000203166002900480601f0160208091040260200160405190810160405280929190818152602001828054600181600116156101000203166002900480156107175780601f106106ec57610100808354040283529160200191610717565b820191906000526020600020905b8154815290600101906020018083116106fa57829003601f168201915b505050505081565b6000806000610bc260008573ffffffffffffffffffffffffffffffffffffffff1673ffffffffffffffffffffffffffffffffffffffff1681526020019081526020016000205490506000811480156107c55750600660009054906101000a900473ffffffffffffffffffffffffffffffffffffffff1673ffffffffffffffffffffffffffffffffffffffff168473ffffffffffffffffffffffffffffffffffffffff1614155b156107dc5760008081915080905092509250610817565b600a816103e8811015156107ec57fe5b60030201600101549250600a816103e88110151561080657fe5b600302016002015491508282925092505b50915091565b6000600660009054906101000a900473ffffffffffffffffffffffffffffffffffffffff1673ffffffffffffffffffffffffffffffffffffffff163373ffffffffffffffffffffffffffffffffffffffff1614151561087b57600080fd5b8160058190555060019050919050565b600080600260149054906101000a900460ff16151515610913576040517f08c379a00000000000000000000000000000000000000000000000000000000081526004018080602001828103825260128152602001807f7468652063726f776420697320656e646564000000000000000000000000000081525060200191505060405180910390fd5b600454421015156109a7576001600260146101000a81548160ff0219169083151502179055506040517f08c379a00000000000000000000000000000000000000000000000000000000081526004018080602001828103825260128152602001807f7468652063726f776420697320656e646564000000000000000000000000000081525060200191505060405180910390fd5b6109bc60055484610f9190919063ffffffff16565b90506000811115156109cd57600080fd5b600260009054906101000a900473ffffffffffffffffffffffffffffffffffffffff1673ffffffffffffffffffffffffffffffffffffffff16638568523a33856040518363ffffffff167c0100000000000000000000000000000000000000000000000000000000028152600401808373ffffffffffffffffffffffffffffffffffffffff1673ffffffffffffffffffffffffffffffffffffffff16815260200182815260200192505050602060405180830381600087803b158015610a9257600080fd5b505af1158015610aa6573d6000803e3d6000fd5b505050506040513d6020811015610abc57600080fd5b81019080805190602001909291905050501515610ad857600080fd5b610ae23382610c1f565b915050919050565b60035481565b600260149054906101000a900460ff1681565b600660009054906101000a900473ffffffffffffffffffffffffffffffffffffffff1681565b60008034111515610b3957600080fd5b600090505b6103e8811015610c1057600a816103e881101515610b5857fe5b6003020160000160009054906101000a900473ffffffffffffffffffffffffffffffffffffffff1673ffffffffffffffffffffffffffffffffffffffff166108fc610bd7600854610bc9600a866103e881101515610bb257fe5b600302016001015434610fbb90919063ffffffff16565b610f9190919063ffffffff16565b9081150290604051600060405180830381858888f19350505050158015610c02573d6000803e3d6000fd5b508080600101915050610b3e565b50565b60055481565b60075481565b600080600073ffffffffffffffffffffffffffffffffffffffff168473ffffffffffffffffffffffffffffffffffffffff1614151515610c5e57600080fd5b600854836007540111151515610c7357600080fd5b6000610bc260008673ffffffffffffffffffffffffffffffffffffffff1673ffffffffffffffffffffffffffffffffffffffff16815260200190815260200160002054118015610d045750600954610bc260008673ffffffffffffffffffffffffffffffffffffffff1673ffffffffffffffffffffffffffffffffffffffff16815260200190815260200160002054105b15610db257610bc260008573ffffffffffffffffffffffffffffffffffffffff1673ffffffffffffffffffffffffffffffffffffffff168152602001908152602001600020549050610d7683600a836103e881101515610d6057fe5b6003020160010154610ff990919063ffffffff16565b600a826103e881101515610d8657fe5b600302016001018190555042600a826103e881101515610da257fe5b6003020160020181905550610ec2565b6009600081548092919060010191905055905080610bc260008673ffffffffffffffffffffffffffffffffffffffff1673ffffffffffffffffffffffffffffffffffffffff16815260200190815260200160002081905550610e3483600a836103e881101515610e1e57fe5b6003020160010154610ff990919063ffffffff16565b600a826103e881101515610e4457fe5b600302016001018190555083600a826103e881101515610e6057fe5b6003020160000160006101000a81548173ffffffffffffffffffffffffffffffffffffffff021916908373ffffffffffffffffffffffffffffffffffffffff16021790555042600a826103e881101515610eb657fe5b60030201600201819055505b610ed783600754610ff990919063ffffffff16565b506008546007541415610f00576001600260146101000a81548160ff0219169083151502179055505b6103e860095411151515610f1357600080fd5b7fc804beabd6deef69632486188d3b1a0fc6837d20bf348393884d368fa5bf10cd848483604051808473ffffffffffffffffffffffffffffffffffffffff1673ffffffffffffffffffffffffffffffffffffffff168152602001838152602001828152602001935050505060405180910390a1600191505092915050565b600080600083111515610fa357600080fd5b8284811515610fae57fe5b0490508091505092915050565b6000806000841415610fd05760009150610ff2565b8284029050828482811515610fe157fe5b04141515610fee57600080fd5b8091505b5092915050565b600080828401905083811015151561101057600080fd5b80915050929150505600a165627a7a72305820ec1754a5bb6b6a2d980cd29a6ae92b5f3cc3fe54a34f7a31143ba8d9f4b55eab0029",
  "source": "pragma solidity ^0.4.24;\n\nimport \"./math/SafeMath.sol\";\nimport \"./kccToken.sol\";\n\ncontract MoveCrowd {\n    using SafeMath for uint256;\n\n    string public name = \"mvc\";\n    string public desc;\n\n    KccToken token;\n\n    bool public isFinished = false;//是否结束\n    uint public startTime;//开始时间\n    uint public endTime;//结束时间\n\n    uint public mvcPrice = 100;//mvc份额价格\n\n    address public owner;\n\n    uint public totalCrowd = 0;//已众筹数量\n    uint public totalSupply = 0;//总众筹数量\n\n    struct CrowdFundingInfo {\n        address addr;\n        uint amount;\n        uint crowdTime;\n    }\n\n    uint userCount = 0;\n    CrowdFundingInfo[1000] info;\n\n    mapping(address => uint) userId;\n\n    event AirDrop(address to, uint value, uint id);\n\n    constructor(uint _totalSupply, string _desc, address _owner, KccToken _token, uint _endTime) public {\n        totalSupply = _totalSupply;\n        owner = _owner;\n        desc = _desc;\n\n        token = _token;\n\n        startTime = now;\n        endTime = now + _endTime.mul(1 days);\n\n        userId[owner] = userCount++;\n        info[0].addr = owner;\n        info[0].amount = totalSupply * 10 / 100;\n        info[0].crowdTime = now;\n        totalCrowd = info[0].amount;\n    }\n    //空投mvc份额\n    function airDrop(address to, uint value) external returns (bool) {\n        require(msg.sender == owner, \"Only owner can be oprator\");\n        return _drop(to, value);\n    }\n    //使用kcctoken购买份额\n    function buyMvc(uint value) external returns (bool) {\n        require(!isFinished, \"the crowd is ended\");\n\n        if(now >= endTime) {\n            isFinished = true;\n            revert(\"the crowd is ended\");\n        }\n\n\n        uint number = value.div(mvcPrice);\n        require(number > 0);\n        require(token.transferToOwner(msg.sender, value));\n\n        return _drop(msg.sender, number);\n    }\n    //份额空投\n    function _drop(address to, uint value) private returns (bool) {\n\n        require(to != address(0));\n        require(totalCrowd + value <= totalSupply);\n\n        uint id;\n        if(userId[to] > 0 && userId[to] < userCount) {\n            id = userId[to];\n            info[id].amount = info[id].amount.add(value);\n            info[id].crowdTime = now;\n        } else {\n            id = userCount++;\n            userId[to] = id;\n            info[id].amount = info[id].amount.add(value);\n            info[id].addr = to;\n            info[id].crowdTime = now;\n        }\n        totalCrowd.add(value);\n        if( totalCrowd == totalSupply) {\n            isFinished = true;\n        }\n        require( userCount <= 1000);\n        emit AirDrop(to, value, id);\n\n        return true;\n\n    }\n    //个人众筹信息\n    function crowdInfo(address who) external view returns (uint amount, uint crowdTime) {\n        uint id = userId[who];\n        if(id == 0 && who != owner){\n            return (0,0);\n\t}\n        amount = info[id].amount;\n        crowdTime = info[id].crowdTime;\n        return (amount, crowdTime);\n    }\n    //购买电影票\n    function ticketBooking() payable public {\n        require( msg.value > 0);\n\n        for(uint i = 0; i < info.length; i++) {\n            info[i].addr.transfer( msg.value.mul(info[i].amount).div(totalSupply));\n        }\n    }\n    //设置mvc价格\n    function setMvcPrice(uint value) external returns(bool) {\n        require(msg.sender == owner);\n        mvcPrice = value;\n        return true;\n    }\n\n    function getBalance() public view returns (uint) {\n        return address(this).balance;\n    }\n}\n",
  "sourcePath": "/home/lxd/WebstormProjects/untitled/zc/contracts/MoveCrowd.sol",
  "compiler": {
    "name": "solc",
    "version": "0.4.24+commit.e67f0147.Emscripten.clang"
  },
  "schemaVersion": "2.0.1",
  "updatedAt": "2018-11-30T08:12:28.751Z"
}