{
  "contractName": "MvcFunding",
  "abi": [
    {
      "constant": true,
      "inputs": [],
      "name": "owner",
      "outputs": [
        {
          "name": "",
          "type": "address"
        }
      ],
      "payable": false,
      "stateMutability": "view",
      "type": "function"
    },
    {
      "inputs": [
        {
          "name": "endTime",
          "type": "uint256"
        }
      ],
      "payable": false,
      "stateMutability": "nonpayable",
      "type": "constructor"
    },
    {
      "constant": true,
      "inputs": [],
      "name": "getAddr",
      "outputs": [
        {
          "name": "_kcc",
          "type": "address"
        },
        {
          "name": "_mc",
          "type": "address"
        }
      ],
      "payable": false,
      "stateMutability": "view",
      "type": "function"
    },
    {
      "constant": false,
      "inputs": [
        {
          "name": "kccAddr",
          "type": "address"
        },
        {
          "name": "mcAddr",
          "type": "address"
        }
      ],
      "name": "setAddr",
      "outputs": [],
      "payable": false,
      "stateMutability": "nonpayable",
      "type": "function"
    }
  ],
  "bytecode": "0x608060405234801561001057600080fd5b5060405160208061337b8339810180604052810190808051906020019092919050505033600260006101000a81548173ffffffffffffffffffffffffffffffffffffffff021916908373ffffffffffffffffffffffffffffffffffffffff16021790555062030d403361008161025c565b808381526020018273ffffffffffffffffffffffffffffffffffffffff1673ffffffffffffffffffffffffffffffffffffffff16815260200192505050604051809103906000f0801580156100da573d6000803e3d6000fd5b506000806101000a81548173ffffffffffffffffffffffffffffffffffffffff021916908373ffffffffffffffffffffffffffffffffffffffff160217905550612710336000809054906101000a900473ffffffffffffffffffffffffffffffffffffffff168361014961026c565b80858152602001806020018573ffffffffffffffffffffffffffffffffffffffff1673ffffffffffffffffffffffffffffffffffffffff1681526020018473ffffffffffffffffffffffffffffffffffffffff1673ffffffffffffffffffffffffffffffffffffffff168152602001838152602001828103825260068152602001807f54616954616e000000000000000000000000000000000000000000000000000081525060200195505050505050604051809103906000f080158015610215573d6000803e3d6000fd5b50600160006101000a81548173ffffffffffffffffffffffffffffffffffffffff021916908373ffffffffffffffffffffffffffffffffffffffff1602179055505061027c565b604051611967806105ae83390190565b60405161146680611f1583390190565b6103238061028b6000396000f300608060405260043610610057576000357c0100000000000000000000000000000000000000000000000000000000900463ffffffff1680638da5cb5b1461005c578063a74c2bb6146100b3578063ebcb00e01461013d575b600080fd5b34801561006857600080fd5b506100716101a0565b604051808273ffffffffffffffffffffffffffffffffffffffff1673ffffffffffffffffffffffffffffffffffffffff16815260200191505060405180910390f35b3480156100bf57600080fd5b506100c86101c6565b604051808373ffffffffffffffffffffffffffffffffffffffff1673ffffffffffffffffffffffffffffffffffffffff1681526020018273ffffffffffffffffffffffffffffffffffffffff1673ffffffffffffffffffffffffffffffffffffffff1681526020019250505060405180910390f35b34801561014957600080fd5b5061019e600480360381019080803573ffffffffffffffffffffffffffffffffffffffff169060200190929190803573ffffffffffffffffffffffffffffffffffffffff169060200190929190505050610216565b005b600260009054906101000a900473ffffffffffffffffffffffffffffffffffffffff1681565b6000806000809054906101000a900473ffffffffffffffffffffffffffffffffffffffff16600160009054906101000a900473ffffffffffffffffffffffffffffffffffffffff16915091509091565b600260009054906101000a900473ffffffffffffffffffffffffffffffffffffffff1673ffffffffffffffffffffffffffffffffffffffff163373ffffffffffffffffffffffffffffffffffffffff1614151561027257600080fd5b816000806101000a81548173ffffffffffffffffffffffffffffffffffffffff021916908373ffffffffffffffffffffffffffffffffffffffff16021790555080600160006101000a81548173ffffffffffffffffffffffffffffffffffffffff021916908373ffffffffffffffffffffffffffffffffffffffff16021790555050505600a165627a7a723058205f389fe195130f6e7069c1acff45fb4acf26c1cb234d3abc988025ea55f6b41d002960806040526040805190810160405280600381526020017f6b636300000000000000000000000000000000000000000000000000000000008152506000908051906020019062000051929190620002bf565b506040805190810160405280600881526020017f6b6363746f6b656e000000000000000000000000000000000000000000000000815250600190805190602001906200009f929190620002bf565b506103e8600255670de0b6b3a7640000600355348015620000bf57600080fd5b5060405160408062001967833981018060405281019080805190602001909291908051906020019092919050505080600460006101000a81548173ffffffffffffffffffffffffffffffffffffffff021916908373ffffffffffffffffffffffffffffffffffffffff160217905550816005819055506200017c60646200015f60148562000251640100000000026200157f179091906401000000009004565b620002936401000000000262001377179091906401000000009004565b60076000600460009054906101000a900473ffffffffffffffffffffffffffffffffffffffff1673ffffffffffffffffffffffffffffffffffffffff1673ffffffffffffffffffffffffffffffffffffffff1681526020019081526020016000208190555060076000600460009054906101000a900473ffffffffffffffffffffffffffffffffffffffff1673ffffffffffffffffffffffffffffffffffffffff1673ffffffffffffffffffffffffffffffffffffffff1681526020019081526020016000205460068190555050506200036e565b60008060008414156200026857600091506200028c565b82840290508284828115156200027a57fe5b041415156200028857600080fd5b8091505b5092915050565b600080600083111515620002a657600080fd5b8284811515620002b257fe5b0490508091505092915050565b828054600181600116156101000203166002900490600052602060002090601f016020900481019282601f106200030257805160ff191683800117855562000333565b8280016001018555821562000333579182015b828111156200033257825182559160200191906001019062000315565b5b50905062000342919062000346565b5090565b6200036b91905b80821115620003675760008160009055506001016200034d565b5090565b90565b6115e9806200037e6000396000f3006080604052600436106100db576000357c0100000000000000000000000000000000000000000000000000000000900463ffffffff16806306fdde03146100e0578063095ea7b31461017057806318160ddd146101d557806323b872dd14610200578063395093511461028557806369e88e71146102ea57806370a082311461030c5780638381f58a146103635780638568523a1461038e57806391b7f5ed146103f357806395d89b4114610420578063a035b1fe146104b0578063a457c2d7146104db578063a9059cbb14610540578063dd62ed3e146105a5575b600080fd5b3480156100ec57600080fd5b506100f561061c565b6040518080602001828103825283818151815260200191508051906020019080838360005b8381101561013557808201518184015260208101905061011a565b50505050905090810190601f1680156101625780820380516001836020036101000a031916815260200191505b509250505060405180910390f35b34801561017c57600080fd5b506101bb600480360381019080803573ffffffffffffffffffffffffffffffffffffffff169060200190929190803590602001909291905050506106ba565b604051808215151515815260200191505060405180910390f35b3480156101e157600080fd5b506101ea6107e7565b6040518082815260200191505060405180910390f35b34801561020c57600080fd5b5061026b600480360381019080803573ffffffffffffffffffffffffffffffffffffffff169060200190929190803573ffffffffffffffffffffffffffffffffffffffff169060200190929190803590602001909291905050506107f1565b604051808215151515815260200191505060405180910390f35b34801561029157600080fd5b506102d0600480360381019080803573ffffffffffffffffffffffffffffffffffffffff169060200190929190803590602001909291905050506109a3565b604051808215151515815260200191505060405180910390f35b6102f2610bda565b604051808215151515815260200191505060405180910390f35b34801561031857600080fd5b5061034d600480360381019080803573ffffffffffffffffffffffffffffffffffffffff169060200190929190505050610d0c565b6040518082815260200191505060405180910390f35b34801561036f57600080fd5b50610378610d55565b6040518082815260200191505060405180910390f35b34801561039a57600080fd5b506103d9600480360381019080803573ffffffffffffffffffffffffffffffffffffffff16906020019092919080359060200190929190505050610d5b565b604051808215151515815260200191505060405180910390f35b3480156103ff57600080fd5b5061041e60048036038101908080359060200190929190505050610d94565b005b34801561042c57600080fd5b50610435610d9e565b6040518080602001828103825283818151815260200191508051906020019080838360005b8381101561047557808201518184015260208101905061045a565b50505050905090810190601f1680156104a25780820380516001836020036101000a031916815260200191505b509250505060405180910390f35b3480156104bc57600080fd5b506104c5610e3c565b6040518082815260200191505060405180910390f35b3480156104e757600080fd5b50610526600480360381019080803573ffffffffffffffffffffffffffffffffffffffff16906020019092919080359060200190929190505050610e42565b604051808215151515815260200191505060405180910390f35b34801561054c57600080fd5b5061058b600480360381019080803573ffffffffffffffffffffffffffffffffffffffff16906020019092919080359060200190929190505050611079565b604051808215151515815260200191505060405180910390f35b3480156105b157600080fd5b50610606600480360381019080803573ffffffffffffffffffffffffffffffffffffffff169060200190929190803573ffffffffffffffffffffffffffffffffffffffff169060200190929190505050611090565b6040518082815260200191505060405180910390f35b60008054600181600116156101000203166002900480601f0160208091040260200160405190810160405280929190818152602001828054600181600116156101000203166002900480156106b25780601f10610687576101008083540402835291602001916106b2565b820191906000526020600020905b81548152906001019060200180831161069557829003601f168201915b505050505081565b60008073ffffffffffffffffffffffffffffffffffffffff168373ffffffffffffffffffffffffffffffffffffffff16141515156106f757600080fd5b81600860003373ffffffffffffffffffffffffffffffffffffffff1673ffffffffffffffffffffffffffffffffffffffff16815260200190815260200160002060008573ffffffffffffffffffffffffffffffffffffffff1673ffffffffffffffffffffffffffffffffffffffff168152602001908152602001600020819055508273ffffffffffffffffffffffffffffffffffffffff163373ffffffffffffffffffffffffffffffffffffffff167f8c5be1e5ebec7d5bd14f71427d1e84f3dd0314c0f7b2291e5b200ac8c7c3b925846040518082815260200191505060405180910390a36001905092915050565b6000600554905090565b600081600860008673ffffffffffffffffffffffffffffffffffffffff1673ffffffffffffffffffffffffffffffffffffffff16815260200190815260200160002060008573ffffffffffffffffffffffffffffffffffffffff1673ffffffffffffffffffffffffffffffffffffffff168152602001908152602001600020541015151561087e57600080fd5b61090d82600860008773ffffffffffffffffffffffffffffffffffffffff1673ffffffffffffffffffffffffffffffffffffffff16815260200190815260200160002060008673ffffffffffffffffffffffffffffffffffffffff1673ffffffffffffffffffffffffffffffffffffffff1681526020019081526020016000205461111790919063ffffffff16565b600860008673ffffffffffffffffffffffffffffffffffffffff1673ffffffffffffffffffffffffffffffffffffffff16815260200190815260200160002060008573ffffffffffffffffffffffffffffffffffffffff1673ffffffffffffffffffffffffffffffffffffffff16815260200190815260200160002081905550610998848484611138565b600190509392505050565b60008073ffffffffffffffffffffffffffffffffffffffff168373ffffffffffffffffffffffffffffffffffffffff16141515156109e057600080fd5b610a6f82600860003373ffffffffffffffffffffffffffffffffffffffff1673ffffffffffffffffffffffffffffffffffffffff16815260200190815260200160002060008673ffffffffffffffffffffffffffffffffffffffff1673ffffffffffffffffffffffffffffffffffffffff1681526020019081526020016000205461135690919063ffffffff16565b600860003373ffffffffffffffffffffffffffffffffffffffff1673ffffffffffffffffffffffffffffffffffffffff16815260200190815260200160002060008573ffffffffffffffffffffffffffffffffffffffff1673ffffffffffffffffffffffffffffffffffffffff168152602001908152602001600020819055508273ffffffffffffffffffffffffffffffffffffffff163373ffffffffffffffffffffffffffffffffffffffff167f8c5be1e5ebec7d5bd14f71427d1e84f3dd0314c0f7b2291e5b200ac8c7c3b925600860003373ffffffffffffffffffffffffffffffffffffffff1673ffffffffffffffffffffffffffffffffffffffff16815260200190815260200160002060008773ffffffffffffffffffffffffffffffffffffffff1673ffffffffffffffffffffffffffffffffffffffff168152602001908152602001600020546040518082815260200191505060405180910390a36001905092915050565b60008060003410151515610c7c576040517f08c379a00000000000000000000000000000000000000000000000000000000081526004018080602001828103825260238152602001807f457468206d75737420626520657175616c206f7220677265617465722074686181526020017f6e2030000000000000000000000000000000000000000000000000000000000081525060400191505060405180910390fd5b610ca5610c9660025460035461137790919063ffffffff16565b3461137790919063ffffffff16565b9050610cb133826113a1565b503373ffffffffffffffffffffffffffffffffffffffff167ff6f342132c7de5e5a1e99c8efae544c94731f3ff093f5c3c97c6973d9415cdfb3483604051808381526020018281526020019250505060405180910390a25090565b6000600760008373ffffffffffffffffffffffffffffffffffffffff1673ffffffffffffffffffffffffffffffffffffffff168152602001908152602001600020549050919050565b60035481565b6000610d8a83600460009054906101000a900473ffffffffffffffffffffffffffffffffffffffff1684611138565b6001905092915050565b8060028190555050565b60018054600181600116156101000203166002900480601f016020809104026020016040519081016040528092919081815260200182805460018160011615610100020316600290048015610e345780601f10610e0957610100808354040283529160200191610e34565b820191906000526020600020905b815481529060010190602001808311610e1757829003601f168201915b505050505081565b60025481565b60008073ffffffffffffffffffffffffffffffffffffffff168373ffffffffffffffffffffffffffffffffffffffff1614151515610e7f57600080fd5b610f0e82600860003373ffffffffffffffffffffffffffffffffffffffff1673ffffffffffffffffffffffffffffffffffffffff16815260200190815260200160002060008673ffffffffffffffffffffffffffffffffffffffff1673ffffffffffffffffffffffffffffffffffffffff1681526020019081526020016000205461111790919063ffffffff16565b600860003373ffffffffffffffffffffffffffffffffffffffff1673ffffffffffffffffffffffffffffffffffffffff16815260200190815260200160002060008573ffffffffffffffffffffffffffffffffffffffff1673ffffffffffffffffffffffffffffffffffffffff168152602001908152602001600020819055508273ffffffffffffffffffffffffffffffffffffffff163373ffffffffffffffffffffffffffffffffffffffff167f8c5be1e5ebec7d5bd14f71427d1e84f3dd0314c0f7b2291e5b200ac8c7c3b925600860003373ffffffffffffffffffffffffffffffffffffffff1673ffffffffffffffffffffffffffffffffffffffff16815260200190815260200160002060008773ffffffffffffffffffffffffffffffffffffffff1673ffffffffffffffffffffffffffffffffffffffff168152602001908152602001600020546040518082815260200191505060405180910390a36001905092915050565b6000611086338484611138565b6001905092915050565b6000600860008473ffffffffffffffffffffffffffffffffffffffff1673ffffffffffffffffffffffffffffffffffffffff16815260200190815260200160002060008373ffffffffffffffffffffffffffffffffffffffff1673ffffffffffffffffffffffffffffffffffffffff16815260200190815260200160002054905092915050565b60008083831115151561112957600080fd5b82840390508091505092915050565b80600760008573ffffffffffffffffffffffffffffffffffffffff1673ffffffffffffffffffffffffffffffffffffffff168152602001908152602001600020541015151561118657600080fd5b600073ffffffffffffffffffffffffffffffffffffffff168273ffffffffffffffffffffffffffffffffffffffff16141515156111c257600080fd5b61121481600760008673ffffffffffffffffffffffffffffffffffffffff1673ffffffffffffffffffffffffffffffffffffffff1681526020019081526020016000205461111790919063ffffffff16565b600760008573ffffffffffffffffffffffffffffffffffffffff1673ffffffffffffffffffffffffffffffffffffffff168152602001908152602001600020819055506112a981600760008573ffffffffffffffffffffffffffffffffffffffff1673ffffffffffffffffffffffffffffffffffffffff1681526020019081526020016000205461135690919063ffffffff16565b600760008473ffffffffffffffffffffffffffffffffffffffff1673ffffffffffffffffffffffffffffffffffffffff168152602001908152602001600020819055508173ffffffffffffffffffffffffffffffffffffffff168373ffffffffffffffffffffffffffffffffffffffff167fddf252ad1be2c89b69c2b068fc378daa952ba7f163c4a11628f55a4df523b3ef836040518082815260200191505060405180910390a3505050565b600080828401905083811015151561136d57600080fd5b8091505092915050565b60008060008311151561138957600080fd5b828481151561139457fe5b0490508091505092915050565b60008073ffffffffffffffffffffffffffffffffffffffff168373ffffffffffffffffffffffffffffffffffffffff1614151515611447576040517f08c379a00000000000000000000000000000000000000000000000000000000081526004018080602001828103825260188152602001807f616464726573732063616e206e6f7420626520656d707479000000000000000081525060200191505060405180910390fd5b6005548260065401111515156114c5576040517f08c379a000000000000000000000000000000000000000000000000000000000815260040180806020018281038252600a8152602001807f73656e64656420656e640000000000000000000000000000000000000000000081525060200191505060405180910390fd5b6114da8260065461135690919063ffffffff16565b60068190555061153282600760008673ffffffffffffffffffffffffffffffffffffffff1673ffffffffffffffffffffffffffffffffffffffff1681526020019081526020016000205461135690919063ffffffff16565b600760008573ffffffffffffffffffffffffffffffffffffffff1673ffffffffffffffffffffffffffffffffffffffff168152602001908152602001600020819055506001905092915050565b600080600084141561159457600091506115b6565b82840290508284828115156115a557fe5b041415156115b257600080fd5b8091505b50929150505600a165627a7a7230582021750ab343244b4990a7eae0ef3e2f3d850e5d19f636957f936f1f2d2b7b0d27002960806040526040805190810160405280600381526020017f6d76630000000000000000000000000000000000000000000000000000000000815250600090805190602001906200005192919062000361565b506000600260146101000a81548160ff02191690831515021790555060646005556000600755600060085560006009553480156200008e57600080fd5b50604051620014663803806200146683398101806040528101908080519060200190929190805182019291906020018051906020019092919080519060200190929190805190602001909291905050508460088190555082600660006101000a81548173ffffffffffffffffffffffffffffffffffffffff021916908373ffffffffffffffffffffffffffffffffffffffff16021790555083600190805190602001906200013e92919062000361565b5081600260006101000a81548173ffffffffffffffffffffffffffffffffffffffff021916908373ffffffffffffffffffffffffffffffffffffffff16021790555042600381905550620001ad62015180826200031f6401000000000262000fbb179091906401000000009004565b42016004819055506009600081548092919060010191905055610bc26000600660009054906101000a900473ffffffffffffffffffffffffffffffffffffffff1673ffffffffffffffffffffffffffffffffffffffff1673ffffffffffffffffffffffffffffffffffffffff16815260200190815260200160002081905550600660009054906101000a900473ffffffffffffffffffffffffffffffffffffffff16600a60006103e8811015156200026157fe5b6003020160000160006101000a81548173ffffffffffffffffffffffffffffffffffffffff021916908373ffffffffffffffffffffffffffffffffffffffff1602179055506064600a60085402811515620002b857fe5b04600a60006103e881101515620002cb57fe5b600302016001018190555042600a60006103e881101515620002e957fe5b6003020160020181905550600a60006103e8811015156200030657fe5b6003020160010154600781905550505050505062000410565b60008060008414156200033657600091506200035a565b82840290508284828115156200034857fe5b041415156200035657600080fd5b8091505b5092915050565b828054600181600116156101000203166002900490600052602060002090601f016020900481019282601f10620003a457805160ff1916838001178555620003d5565b82800160010185558215620003d5579182015b82811115620003d4578251825591602001919060010190620003b7565b5b509050620003e49190620003e8565b5090565b6200040d91905b8082111562000409576000816000905550600101620003ef565b5090565b90565b61104680620004206000396000f3006080604052600436106100db576000357c0100000000000000000000000000000000000000000000000000000000900463ffffffff168063045f7850146100e057806306fdde031461014557806312065fe0146101d557806318160ddd146102005780633197cbb61461022b57806355f150f1146102565780635aac70fa146102e65780635ba268c014610344578063634435f31461038957806378e97925146103ce5780637b352962146103f95780638da5cb5b14610428578063c6acd4bd1461047f578063e51457e714610489578063f825e3a5146104b4575b600080fd5b3480156100ec57600080fd5b5061012b600480360381019080803573ffffffffffffffffffffffffffffffffffffffff169060200190929190803590602001909291905050506104df565b604051808215151515815260200191505060405180910390f35b34801561015157600080fd5b5061015a6105b8565b6040518080602001828103825283818151815260200191508051906020019080838360005b8381101561019a57808201518184015260208101905061017f565b50505050905090810190601f1680156101c75780820380516001836020036101000a031916815260200191505b509250505060405180910390f35b3480156101e157600080fd5b506101ea610656565b6040518082815260200191505060405180910390f35b34801561020c57600080fd5b50610215610675565b6040518082815260200191505060405180910390f35b34801561023757600080fd5b5061024061067b565b6040518082815260200191505060405180910390f35b34801561026257600080fd5b5061026b610681565b6040518080602001828103825283818151815260200191508051906020019080838360005b838110156102ab578082015181840152602081019050610290565b50505050905090810190601f1680156102d85780820380516001836020036101000a031916815260200191505b509250505060405180910390f35b3480156102f257600080fd5b50610327600480360381019080803573ffffffffffffffffffffffffffffffffffffffff16906020019092919050505061071f565b604051808381526020018281526020019250505060405180910390f35b34801561035057600080fd5b5061036f6004803603810190808035906020019092919050505061081d565b604051808215151515815260200191505060405180910390f35b34801561039557600080fd5b506103b46004803603810190808035906020019092919050505061088b565b604051808215151515815260200191505060405180910390f35b3480156103da57600080fd5b506103e3610aea565b6040518082815260200191505060405180910390f35b34801561040557600080fd5b5061040e610af0565b604051808215151515815260200191505060405180910390f35b34801561043457600080fd5b5061043d610b03565b604051808273ffffffffffffffffffffffffffffffffffffffff1673ffffffffffffffffffffffffffffffffffffffff16815260200191505060405180910390f35b610487610b29565b005b34801561049557600080fd5b5061049e610c13565b6040518082815260200191505060405180910390f35b3480156104c057600080fd5b506104c9610c19565b6040518082815260200191505060405180910390f35b6000600660009054906101000a900473ffffffffffffffffffffffffffffffffffffffff1673ffffffffffffffffffffffffffffffffffffffff163373ffffffffffffffffffffffffffffffffffffffff161415156105a6576040517f08c379a00000000000000000000000000000000000000000000000000000000081526004018080602001828103825260198152602001807f4f6e6c79206f776e65722063616e206265206f707261746f720000000000000081525060200191505060405180910390fd5b6105b08383610c1f565b905092915050565b60008054600181600116156101000203166002900480601f01602080910402602001604051908101604052809291908181526020018280546001816001161561010002031660029004801561064e5780601f106106235761010080835404028352916020019161064e565b820191906000526020600020905b81548152906001019060200180831161063157829003601f168201915b505050505081565b60003073ffffffffffffffffffffffffffffffffffffffff1631905090565b60085481565b60045481565b60018054600181600116156101000203166002900480601f0160208091040260200160405190810160405280929190818152602001828054600181600116156101000203166002900480156107175780601f106106ec57610100808354040283529160200191610717565b820191906000526020600020905b8154815290600101906020018083116106fa57829003601f168201915b505050505081565b6000806000610bc260008573ffffffffffffffffffffffffffffffffffffffff1673ffffffffffffffffffffffffffffffffffffffff1681526020019081526020016000205490506000811480156107c55750600660009054906101000a900473ffffffffffffffffffffffffffffffffffffffff1673ffffffffffffffffffffffffffffffffffffffff168473ffffffffffffffffffffffffffffffffffffffff1614155b156107dc5760008081915080905092509250610817565b600a816103e8811015156107ec57fe5b60030201600101549250600a816103e88110151561080657fe5b600302016002015491508282925092505b50915091565b6000600660009054906101000a900473ffffffffffffffffffffffffffffffffffffffff1673ffffffffffffffffffffffffffffffffffffffff163373ffffffffffffffffffffffffffffffffffffffff1614151561087b57600080fd5b8160058190555060019050919050565b600080600260149054906101000a900460ff16151515610913576040517f08c379a00000000000000000000000000000000000000000000000000000000081526004018080602001828103825260128152602001807f7468652063726f776420697320656e646564000000000000000000000000000081525060200191505060405180910390fd5b600454421015156109a7576001600260146101000a81548160ff0219169083151502179055506040517f08c379a00000000000000000000000000000000000000000000000000000000081526004018080602001828103825260128152602001807f7468652063726f776420697320656e646564000000000000000000000000000081525060200191505060405180910390fd5b6109bc60055484610f9190919063ffffffff16565b90506000811115156109cd57600080fd5b600260009054906101000a900473ffffffffffffffffffffffffffffffffffffffff1673ffffffffffffffffffffffffffffffffffffffff16638568523a33856040518363ffffffff167c0100000000000000000000000000000000000000000000000000000000028152600401808373ffffffffffffffffffffffffffffffffffffffff1673ffffffffffffffffffffffffffffffffffffffff16815260200182815260200192505050602060405180830381600087803b158015610a9257600080fd5b505af1158015610aa6573d6000803e3d6000fd5b505050506040513d6020811015610abc57600080fd5b81019080805190602001909291905050501515610ad857600080fd5b610ae23382610c1f565b915050919050565b60035481565b600260149054906101000a900460ff1681565b600660009054906101000a900473ffffffffffffffffffffffffffffffffffffffff1681565b60008034111515610b3957600080fd5b600090505b6103e8811015610c1057600a816103e881101515610b5857fe5b6003020160000160009054906101000a900473ffffffffffffffffffffffffffffffffffffffff1673ffffffffffffffffffffffffffffffffffffffff166108fc610bd7600854610bc9600a866103e881101515610bb257fe5b600302016001015434610fbb90919063ffffffff16565b610f9190919063ffffffff16565b9081150290604051600060405180830381858888f19350505050158015610c02573d6000803e3d6000fd5b508080600101915050610b3e565b50565b60055481565b60075481565b600080600073ffffffffffffffffffffffffffffffffffffffff168473ffffffffffffffffffffffffffffffffffffffff1614151515610c5e57600080fd5b600854836007540111151515610c7357600080fd5b6000610bc260008673ffffffffffffffffffffffffffffffffffffffff1673ffffffffffffffffffffffffffffffffffffffff16815260200190815260200160002054118015610d045750600954610bc260008673ffffffffffffffffffffffffffffffffffffffff1673ffffffffffffffffffffffffffffffffffffffff16815260200190815260200160002054105b15610db257610bc260008573ffffffffffffffffffffffffffffffffffffffff1673ffffffffffffffffffffffffffffffffffffffff168152602001908152602001600020549050610d7683600a836103e881101515610d6057fe5b6003020160010154610ff990919063ffffffff16565b600a826103e881101515610d8657fe5b600302016001018190555042600a826103e881101515610da257fe5b6003020160020181905550610ec2565b6009600081548092919060010191905055905080610bc260008673ffffffffffffffffffffffffffffffffffffffff1673ffffffffffffffffffffffffffffffffffffffff16815260200190815260200160002081905550610e3483600a836103e881101515610e1e57fe5b6003020160010154610ff990919063ffffffff16565b600a826103e881101515610e4457fe5b600302016001018190555083600a826103e881101515610e6057fe5b6003020160000160006101000a81548173ffffffffffffffffffffffffffffffffffffffff021916908373ffffffffffffffffffffffffffffffffffffffff16021790555042600a826103e881101515610eb657fe5b60030201600201819055505b610ed783600754610ff990919063ffffffff16565b506008546007541415610f00576001600260146101000a81548160ff0219169083151502179055505b6103e860095411151515610f1357600080fd5b7fc804beabd6deef69632486188d3b1a0fc6837d20bf348393884d368fa5bf10cd848483604051808473ffffffffffffffffffffffffffffffffffffffff1673ffffffffffffffffffffffffffffffffffffffff168152602001838152602001828152602001935050505060405180910390a1600191505092915050565b600080600083111515610fa357600080fd5b8284811515610fae57fe5b0490508091505092915050565b6000806000841415610fd05760009150610ff2565b8284029050828482811515610fe157fe5b04141515610fee57600080fd5b8091505b5092915050565b600080828401905083811015151561101057600080fd5b80915050929150505600a165627a7a72305820ec1754a5bb6b6a2d980cd29a6ae92b5f3cc3fe54a34f7a31143ba8d9f4b55eab0029",
  "source": "pragma solidity ^0.4.24;\n\nimport \"./kccToken.sol\";\nimport \"./MoveCrowd.sol\";\n\ncontract MvcFunding {\n    KccToken kcc;\n    MoveCrowd mc;\n\n    address public owner;\n\n    constructor (uint endTime) public {\n        owner = msg.sender;\n        kcc = new KccToken(200000,msg.sender);\n        mc = new MoveCrowd(10000,\"TaiTan\",msg.sender, kcc, endTime);\n\n    }\n\n    modifier onlyOwner() {\n        require(msg.sender == owner);\n        _;\n    }\n\n    function getAddr() public view returns(address _kcc, address _mc) {\n        return (address(kcc), address(mc));\n    }\n\n    function setAddr(address kccAddr, address mcAddr) public onlyOwner {\n        kcc = KccToken(kccAddr);\n        mc = MoveCrowd(mcAddr);\n    }\n}\n",
  "sourcePath": "/home/lxd/WebstormProjects/untitled/zc/contracts/MvcFunding.sol",
  "compiler": {
    "name": "solc",
    "version": "0.4.24+commit.e67f0147.Emscripten.clang"
  },
  "schemaVersion": "2.0.1",
  "updatedAt": "2018-11-30T08:12:28.744Z"
}